:1000000030C04AC049C0B1C047C046C045C044C066
:1000100043C0A3C141C040C03FC03EC03DC03CC082
:100020003BC03AC039C015C117C119C11BC11DC1A0
:100030001FC121C123C126C12CC130C146C148C145
:1000400049C14CC14EC150C152C154C158C15FC118
:1000500064C10001FF00FF000001010000FF00FF7C
:10006000010011241FBECFE5D4E0DEBFCDBF10E0FC
:10007000A0E6B0E0E4E7F7E002C005900D92A036FC
:10008000B107D9F710E0A0E6B0E001C01D92AF378C
:10009000B107E1F78AD26CC3B3CF90937400809319
:1000A00073000895909371008093700008958823E1
:1000B00031F485B58B7F85BD89B78F7712C083B347
:1000C0008C7F83BB85B3836085BBB298C29A85B5AC
:1000D000886085BD85B5846085BD8DE783BD89B7A2
:1000E000806889BF0895682FE0917300F0917400D3
:1000F000309721F180916F00882301F19FB7F89428
:1001000020917200259525958091720083708093CF
:1001100072009FBF223014F021E003C02F3F0CF487
:100120002FEF662309F461E0222331F0629F602DF6
:100130001124822F8195099510926F00E091700033
:10014000F0917100309781F080916200882339F43A
:10015000B2990AC081E08093620009950895B29B2C
:1001600003C08F5F80936200089578941F920F926E
:100170000FB60F9211248F939F93EF93FF9381E01B
:1001800080936E0080916100880F880F8C7080933F
:100190006100989B03C0826080936100999B05C0B9
:1001A0008091610081608093610080917200E09194
:1001B0006100FF27E7FDF095EE5AFF4FE491E80F4D
:1001C000E09372009091720080916000891719F09D
:1001D00081E080936F008091720080936000FF91B6
:1001E000EF919F918F910F900FBE0F901F901895D8
:1001F00087B3836C87BB84B38C6084BB81B3886115
:1002000081BB88B3836C88BB85B38C6085BB82B3AC
:10021000886182BB81B3876E81BB84B3806384BBFA
:1002200082B3876E82BB85B3806385BB089580935C
:10023000780082B3876E82BB85B3806385BB809173
:100240007800E82FF0E0EB30F10548F5ED5EFF4F68
:10025000099482B38D7118C082B38D7D11C082B3B1
:100260008E7912C082B38C7916C082B38C7508C0A7
:1002700082B38C7310C082B38C7306C082B38D7945
:1002800082BB089582B38C7182BB85B38F7C85BBA2
:10029000089582B38C7182BBAD98089590980895AB
:1002A0008093770088B3836C88BB85B38C6085BBF3
:1002B00082B3886182BB80917700E82FF0E0EB3059
:1002C000F10560F5E25EFF4F099488B38C7B19C09D
:1002D000C09813C088B38C7788BB15C088B38C775F
:1002E00018C088B38E7308C088B38D7312C088B3EA
:1002F0008D7307C088B38C7F88BBAA98089588B394
:100300008C7388BBAA9882B3877E82BB089588B31A
:100310008C7388BBAA9893980895C79808951F93E3
:10032000182F843660F48A3018F06AE000D201C0D9
:100330008BE0B6DF812F6AE0FAD1892F0BC08436BB
:1003400021F48AE0ADDF8AE005C0853621F48BE038
:10035000A7DF8BE06CDF1F9108951F920F920FB6FD
:100360000F9211242F938F939F938091640090910B
:100370006500892BB1F480917D0090917E000097FB
:1003800029F0019790937E0080937D0080917A0000
:1003900090917B00009729F0019790937B008093C8
:1003A0007A008091640090916500019690936500B9
:1003B00080936400809164009091650085599C4011
:1003C00038F0109265001092640081E0809368001C
:1003D0009F918F912F910F900FBE0F901F901895A6
:1003E00080916600813069F0813020F0823009F020
:1003F000ACC044C08091690092DF81E080936600C8
:100400000895209169002E3148F016163CF485E0DD
:100410006802C0011124280F2093690080916900AF
:100420008E3118F4860F80936900809169008E31B7
:1004300031F467FF04C0625E609369006E512091E1
:1004400069002F3148F067FF07C085E06802C001EE
:100450001124280F2093690080916900843618F0D8
:100460008FE58093690080916900882319F481E009
:10047000809369008091690052DF08958CE090E0DC
:1004800090937E0080937D0020916B0030916C00F2
:100490002E31310564F0161654F485E06802C0016F
:1004A0001124820F931F90936C0080936B00209116
:1004B0006B0030916C002E31310554F4862F992752
:1004C00087FD9095820F931F90936C0080936B0033
:1004D00080916B0090916C004E9759F467FF09C0B2
:1004E000862F992787FD90954E9690936C00809368
:1004F0006B0020916B0030916C002F31310564F05E
:1005000067FF0AC085E06802C0011124820F931FB3
:1005100090936C0080936B0080916B0090916C00C5
:100520008436910534F08FE590E090936C008093D1
:100530006B0080916B0090916C00892B31F481E00D
:1005400090E090936C0080936B000895809166001A
:10055000813069F0813028F08230E1F0833021F57C
:100560001EC081E0809366008091690016C080E023
:1005700090E060916900EFD0E199FECF10926A009F
:100580008091690080936B0010926C0082E08093F0
:10059000660008951092660084E6C1DE0895C3984F
:1005A00084E6BDDE109266000895DF92EF92FF921E
:1005B0000F931F93CF93DF9380E090E0C4D080939C
:1005C0006900E199FECF81508F3548F08EE180932C
:1005D000690080E090E06EE1BED0E199FECFBB9A69
:1005E00081E065DD80EF91E058DD86EA92E05ADD3A
:1005F00083B7816083BF89B7816089BF7894F8DD54
:1006000084E68DDE98E2E92EF12C83E0D82E02E11B
:1006100010E0C8E0D0E080917C0065DD809166004C
:100620008823D1F480917D0090917E00892B21F464
:10063000F0927E00E0927D0080917D0090917E009E
:10064000889711F484E66BDE80917D0090917E00A6
:10065000449711F485E663DE80916600823009F0EC
:1006600043C080917D0090917E00892B21F41093EE
:100670007E0000937D0080917D0090917E004297E6
:1006800011F485E64CDE80917D0090917E000C9700
:1006900019F480916B0043DE80916800882321F17A
:1006A00010926800809167008F5F8093670080914F
:1006B00067008A30C9F480916A008F5F80936A0076
:1006C0008C3381F410926A0080916B0090916C00E1
:1006D000019790936C0080936B00892B19F4C39A57
:1006E000D09266001092670080916600833009F016
:1006F00092CF80917D0090917E00892B21F4D09340
:100700007E00C0937D0080917D0090917E000897CF
:1007100021F480E0C5DD80E08ADD80917D0090914C
:100720007E00049709F077CF85E6F9DD74CF991B39
:1007300079E004C0991F961708F0961B881F7A95D8
:10074000C9F780950895E199FECF9FBB8EBBE09AD3
:1007500099278DB30895262FE199FECF9FBB8EBBBD
:100760002DBB0FB6F894E29AE19A0FBE0196089558
:04077000F894FFCF2B
:00000001FF
