:100000001AC034C006C3E7C031C030C02FC02EC0F4
:100010002DC0EAC12BC02AC029C028C027C026C0D5
:1000200025C024C023C00001FF00FF000001010023
:1000300000FF00FF010011241FBECFE5D4E0DEBFAA
:10004000CDBF10E0A0E6B0E0ECE9F3E102C005901E
:100050000D92A836B107D9F710E0A8E6B0E001C0CC
:100060001D92AA3AB107E1F7FED796C9C9CFFC01A4
:1000700087B3842B87BB88B3242F2095282398B37C
:10008000942B3FB7F8941DC0819148E098BB87FF3F
:1000900028BB880F000000C028BB000000C000C0C3
:1000A00000C000C000C000C000C000C000C000C050
:1000B00000C000C000C000C000C04A9539F76150C0
:1000C00070406115710501F73FBF089540E8CFDF2B
:1000D0000895660F771F660F771F40E8C8DF88E531
:1000E00092E00197F1F708959B01220F331F260F2D
:1000F000371FB901BCDF88E592E00197F1F7089559
:1001000040E8F2DF08959093870080938600089579
:1001100090938400809383000895882331F485B5FB
:100120008B7F85BD89B78F7712C086B3877D86BBED
:1001300088B3886288BBB498C49A85B5886085BD49
:1001400085B5846085BD84E683BD89B7806889BF35
:100150000895682FE0918600F0918700309721F193
:1001600080918200882301F19FB7F8942091850047
:1001700025952595809185008370809385009FBF8C
:10018000223014F021E003C02F3F0CF42FEF662340
:1001900009F461E0222331F0629F602D1124822F47
:1001A0008195099510928200E0918300F09184007E
:1001B000309781F080916A00882339F4B4990AC09D
:1001C00081E080936A0009950895B49B03C08F5F16
:1001D00080936A00089578941F920F920FB60F9241
:1001E00011248F939F93EF93FF9380916900880F61
:1001F000880F8C7080936900B39B03C082608093EA
:100200006900B59B05C08091690081608093690099
:1002100080918500E0916900FF27E7FDF095EA5D98
:10022000FF4FE491E80FE093850090918500809165
:100230006800891719F081E0809382008091850021
:1002400080936800FF91EF919F918F910F900FBE67
:100250000F901F901895BC0180E49FE174D8603125
:1002600030F0862F90E0409795958795682F60B97C
:10027000089584EA86BF06B607FEFDCF089584E997
:1002800086BF06B604FCFDCF089583B984E886BF17
:1002900006B607FEFDCF08958295880F880F807CF3
:1002A000846886BF06B607FEFDCF83B10895982FF8
:1002B000F90184EA86BF06B607FEFDCF93B984E84C
:1002C00086BF06B607FEFDCF63B984E886BF06B6D3
:1002D00007FEFDCF09C0808183B996BF06B607FE31
:1002E000FDCF3196415001C094E84423A1F784E941
:1002F00086BF06B604FCFDCF0895982FF90184EA65
:1003000086BF06B607FEFDCF93B984E886BF06B662
:1003100007FEFDCF63B984E886BF06B607FEFDCFB2
:1003200084EA86BF06B607FEFDCF9F5F93B984E8D7
:1003300086BF06B607FEFDCF12C0415080E090E0B8
:1003400011F081E090E036E0880F991F3A95E1F7CF
:10035000846886BF06B607FEFDCF83B18193442330
:1003600061F784E986BF06B604FCFDCF089581B32A
:10037000876181BBBE9A84B38F6084BB83B783607F
:1003800083BF89B7816089BF0895282F362F8831B0
:1003900048F46AE0CCD780938800822FC8D7909326
:1003A0009B0005C08AE080939B00809388003C33CB
:1003B00050F4832F6AE0BBD780939600832FB7D782
:1003C00090938F0008958AE08093960080938F0029
:1003D0000895982F869586958270292F2170822BFB
:1003E000990F9C70892B08951F920F920FB60F9250
:1003F00011241F932F933F934F935F936F937F939A
:100400008F939F93AF93BF93EF93FF9380916B0074
:1004100090916C00892B09F058C0809199009091BF
:100420009A00009729F0019790939A008093990081
:100430008091920090919300009729F001979093FA
:100440009300809392008091890090918A00009798
:1004500029F0019790938A008093890080918B0006
:1004600090918C00009729F0019790938C008093D5
:100470008B008091970090919800009729F0019748
:1004800090939800809397008091900090919100B4
:10049000009729F0019790939100809390008091AC
:1004A0009C0090919D00009729F0019790939D00EA
:1004B00080939C008091940090919500009729F082
:1004C0000197909395008093940080916B00909198
:1004D0006C00019690936C0080936B0080916B0090
:1004E00090916C00059720F010926C0010926B00B8
:1004F00010916000183020F482B3887E812B03C0F5
:1005000082B3887E806182BB113021F4C6988091CD
:1005100088001FC0123061F480919B005ADF85BBB8
:1005200080918D00882311F0C69A15C0C69813C01B
:10053000143021F4C698809196000BC0183059F4FD
:1005400080918E00882311F0C69A01C0C6988091D0
:100550008F003FDF85BB812F880F8093600089303B
:1005600018F081E080936000FF91EF91BF91AF910F
:100570009F918F917F916F915F914F913F912F91BB
:100580001F910F900FBE0F901F90189580917500CE
:1005900090919F008823D1F480916F00981779F58E
:1005A0009091A90080917000981749F58091A00062
:1005B000882329F5109274001092980010929700E9
:1005C0001092730081E08093720008958091A400DE
:1005D0009817A9F49091A90080919E00981779F43A
:1005E0008091A000882359F41092980010929700EF
:1005F000109274001092730081E08093720008954D
:1006000094E6899FC001112490938C0080938B0005
:1006100008951F920F920FB60F9211248F9381E0CD
:1006200080936D008F910F900FBE0F901F901895C3
:10063000482F6AE07CD6282F30E084E0220F331F59
:100640008A95E1F7842F73D6892F822B0895282F5E
:1006500022952F709AE0299F900111248F70820FAC
:10066000089520916E00222331F08CEB92E090935C
:100670008A0080938900772767FD709580916100DB
:1006800090916200680F791F70936200609361001F
:10069000223029F1233020F4213009F06CC006C04B
:1006A0002330B1F1243009F066C04CC068317105C7
:1006B00021F410926200109261008091610090918B
:1006C00062008F5F9F4F31F487E190E0909362006A
:1006D00080936100809161006091700031C06C3343
:1006E000710521F410926200109261008091610006
:1006F000909162008F5F9F4F31F48BE390E0909375
:1007000062008093610080916F006091610018C069
:100710006831710521F4109262001092610080919D
:100720006100909162008F5F9F4F31F487E190E00C
:100730009093620080936100809161006091A900B4
:1007400024DE08956C33710521F41092620010923A
:10075000610080916100909162008F5F9F4F31F442
:100760008BE390E0909362008093610080919F0002
:10077000609161000ADE08950F931F9380E090E07E
:10078000F6D5082F80936F00E199FECF81E090E0CD
:10079000EED5182F80937000E199FECF82E090E0B3
:1007A000E6D580937100E199FECF083120F41C3327
:1007B00010F4823090F080E090E06CE0E0D5E199B8
:1007C000FECF81E090E06EE1DAD5E199FECF82E0E4
:1007D00090E060E0D4D5E199FECF1F910F9108958C
:1007E0008093A200E2EAF0E062934093A300CF017D
:1007F00063E070E06BDC089580916E00882309F05F
:1008000089C080917200882309F484C08091970088
:1008100090919800892B69F4809173008F5F809389
:100820007300879B979A8CED95E090939800809346
:100830009700209173002130E9F48091920090910B
:100840009300892B31F48AEA90E09093930080938F
:1008500092008091920090919300803A910509F462
:10086000C19A80919200909193008238910509F08D
:1008700051C01BC02230D9F4809192009091930016
:10088000892B31F484E690E090939300809392005A
:100890008091920090919300C29709F4C19A80913F
:1008A0009200909193000A97A9F5C198089523307A
:1008B000D0F08091920090919300892B31F482E3E3
:1008C00090E0909393008093920080919200909199
:1008D0009300889709F4C19A8091920090919300B7
:1008E000059709F4C1982430A9F41092A20010923F
:1008F000A1001092A30081EA90E063E070E0E6DBE3
:100900008CEB92E090938A008093890010927200A1
:100910009798C19808958091940090919500892BA3
:1009200031F484EA96E090939500809394002091AE
:100930009400309195008091780090917900821711
:10094000930709F4B6C0809194009091950090931C
:1009500079008093780090917A009F5F90937A005D
:1009600080917200882321F0913009F0A2C003C069
:10097000963009F09EC010927A0080918900909183
:100980008A00892B09F08DC080917D008823C9F5EC
:1009900080917E0040916300841718F48F5F8093EC
:1009A0007E0080917F0030916500831718F48F5F7F
:1009B00080937F008091800090916600891718F4E1
:1009C0008F5F8093800020917E00241759F48091DE
:1009D0007F00831739F480918000891719F481E032
:1009E00080937D0080917F00909180002093A200F1
:1009F0008093A1009093A30081EA90E063E070E00F
:100A000065DB80917D00882309F453C090916300D9
:100A1000993C10F010926400913011F490936400AE
:100A200080916400882311F09F5F01C091509093E2
:100A3000630090916500993C10F010927B0091301A
:100A400011F490937B0080917B00882311F09F5FCD
:100A500001C091509093650090916600993C10F010
:100A600010927C00913011F490937C0080917C0076
:100A7000882311F09F5F01C0915090936600809190
:100A8000650020916600909163009093A20080938E
:100A9000A1002093A30081EA90E063E070E016DB00
:100AA000089510927E001092800010927F001092A4
:100AB0007D0008951F93182F882381F410927500EC
:100AC00010928E001092710010927200C198979847
:100AD0001092A2008FEF8093A10011C08130E9F441
:100AE00080938E00109298001092970010927300DD
:100AF000809371008FEF8093A2001092A10010925A
:100B0000A30081EA90E063E070E0E0DA8CE291E03B
:100B100090938C0080938B001CC08230D1F4109293
:100B200072009798C1989CE39093A20088EC809300
:100B3000A1009093A30081EA90E063E070E0C6DA40
:100B40008CE291E090938C0080938B00E199FECF32
:100B500005C082E090E0612F12D4F8CF1F91089574
:100B60002CEB32E030938A002093890080916E0054
:100B7000823009F472C0833030F4882359F0813018
:100B800009F0CCC05BC0833009F48DC0843009F01B
:100B9000C5C0A1C010928C0010928B008091720091
:100BA000882319F080E086DF0895869B21C08FEFAF
:100BB0008093A2008093A1008093A30081EA90E03B
:100BC00063E070E083DA81E080938D008EE190E055
:100BD000909391008093900080919F00809361009A
:100BE0001092620084E66091A900CFDB83E070C0C0
:100BF00081E080938D00C0DD84E660917000C5DBEC
:100C00008EE190E0909391008093900080916F002E
:100C1000809361001092620080916E008F5F8093DC
:100C20006E008FEF8093A2008093A1001092A3002A
:100C300081EA90E063E070E049DA08958091610014
:100C400080936F0064E6A1DB8EE190E090939100C9
:100C5000809390008091700034C030938A0020937C
:100C6000890081E027DF1092A2001092A10010926B
:100C7000A30081EA90E063E070E028DA80916100EF
:100C80008093700080E090E060916F0078D3E199EC
:100C9000FECF81E090E06091700071D3E199FECFCA
:100CA00010926E0008958091610080939F002EE164
:100CB00030E0309391002093900064E666DB8091F1
:100CC000A900809361001092620080916E008F5F96
:100CD00080936E0008951092A2001092A1001092CD
:100CE000A30081EA90E063E070E0F0D980916100B8
:100CF0008093A9001092A5001092A60099DC809321
:100D0000A70080919F0094DC8093A80080EA61E0B6
:100D100044E025EA30E0CBDA10926E00089580912D
:100D2000990090919A00019721F410927600109208
:100D3000770080917600813019F1813030F0823077
:100D400079F1833009F05DC036C0809199009091AF
:100D50009A00892B09F055C080916E00882309F014
:100D600050C085994EC080917700882309F049C012
:100D700082E390E090939A008093990081E00DC007
:100D80008091990090919A00892B11F4109276002D
:100D9000B29937C0809176008F5F8093760031C022
:100DA0008091990090919A00892B11F4109276000D
:100DB000859B27C0EFCF8091990090919A00892B55
:100DC00011F410927600B29B1CC0109276008091B4
:100DD0007200882341F08CEB92E090938A0080931C
:100DE000890082E007C08CEB92E090938A008093A8
:100DF000890080E05FDE84E690E090938C00809331
:100E00008B0080917700813019F1813030F0823091
:100E100051F1833009F0C0C036C0809199009091A3
:100E20009A00892B09F0B8C080916E00882309F0E0
:100E3000B3C0B299B1C080917600882309F0ACC0EC
:100E400082E390E090939A008093990081E018C02B
:100E50008091990090919A00892B11F4109277005B
:100E600085999AC00AC08091990090919A00892B27
:100E700011F410927700B29B8FC0809177008F5F42
:100E80008093770008958091990090919A00892B22
:100E900011F410927700859B7FC0109277008091AB
:100EA0007200882309F46AC082E004DE8091750034
:100EB0008823A9F520916F002093A40090917000E1
:100EC000892F8F5F80939E008C3358F09B539093B3
:100ED0009E00822F8F5F8093A400883110F01092C3
:100EE000A4008FEF8093A20086E98093A10084E69E
:100EF0008093A30081EA90E063E070E0E7D88CE2A1
:100F000091E090938C0080938B008CEB92E0909317
:100F10008A008093890081E08093750037C09091AA
:100F20009E00892F8F5F80939E008C3360F09B53CF
:100F300090939E008091A4008F5F8093A4008831DD
:100F400010F01092A4008FEF8093A20086E98093A6
:100F5000A10084E68093A30081EA90E063E070E062
:100F6000B5D88CE291E090938C0080938B008CEB51
:100F700092E090938A008093890008C08CEB92E005
:100F800090938A008093890081E094DD84E690E06C
:100F900090938C0080938B00089580EA61E044E098
:100FA00025EA30E0AAD92091A600822F82958F7081
:100FB0004AE0849FC00111242F70280F2093A000C5
:100FC0006091A700862F82958F70849FC0011124A5
:100FD0006F70680F6093A9008091A800282F229558
:100FE0002F70249F900111248F70820F80939F0097
:100FF000CCD908951F93182F80EA61E044E025EAD8
:1010000030E07BD9112371F48091A800282F22951C
:101010002F709AE0299F900111248F70820F809386
:101020009F001FC0113071F48091A700282F2295D6
:101030002F709AE0299F900111248F70820F809366
:10104000A9000FC0123069F48091A600282F2295C4
:101050002F709AE0299F900111248F70820F809346
:10106000A0001F910895BF92CF92DF92EF92FF925E
:101070000F931F93CF93DF9385B78C6085BF8BB79A
:1010800080688BBF89B7806889BF939A82B3806676
:1010900082BB6DD9BF9AB99A8F9A81E03ED881E31D
:1010A00093E031D880EB95E033D8789476DF64DB39
:1010B0001092A2001092A1001092A30081EA90E089
:1010C00063E070E003D880917100882319F081E01B
:1010D00080938E0084EF91E090938A008093890042
:1010E00010929500109294002EE088E190E00FB6E7
:1010F000F894A89581BD0FBE21BD10E0CCEBD2E0E5
:101100004AE5E42EF12C0CE338ECD32E28E7C22E6E
:101110009AE0B92EA89581E01CD801DE6DDB8091A4
:101120006E00823009F4EAC0833028F4882349F045
:10113000813081F7E3C0833009F4ECC0843051F78B
:10114000E9C080918B0090918C00019759F4109226
:10115000A2001092A1001092A30081EA90E063E047
:1011600070E0B4D7D8DB8091710081110FDA869BD3
:1011700021C0809174008823E9F480917100882354
:10118000C9F0809172008823A9F01092A2001092F9
:10119000A1001092A30081EA90E063E070E096D78E
:1011A000D0938A00C093890081E08093740082E02C
:1011B00081DC6CC0869B35C080917400882389F5E2
:1011C00080917200882369F5D0938A00C0938900CA
:1011D0001123B1F480917500882339F4C092A200E4
:1011E0000093A100B092A30006C00093A200D09289
:1011F000A1000093A30081EA90E063E070E066D76D
:1012000081E080938D0080917500882329F480917E
:101210006F0060917000B9D881E080936D0011E09B
:1012200035C080917200882321F180918D00882340
:1012300019F481E080938D0080919C0090919D0035
:10124000892B21F4F0929D00E0929C0080919C00FB
:1012500090919D008A35910519F484E664E695D84D
:1012600080919C0090919D008634910579F495DEE3
:101270000DC080916D00882349F08FDE80918D0034
:1012800091E0892780938D0010926D00869916C099
:1012900080917400882391F0D0938A00C0938900D4
:1012A000109274001092A2001092A1001092A3005C
:1012B00081EA90E063E070E009D710E086992ACFD8
:1012C000112309F427CF80917500882351F0809174
:1012D0007200882331F41092750010927200979872
:1012E000C1981092A2001092A1001092A30081EA6E
:1012F00090E063E070E0EAD610E00CCF80919000BF
:1013000090919100019709F005CF80916F00609155
:1013100070000BC08091900090919100019709F0AE
:10132000F9CE80919F006091A9002FD8F3CE991B30
:1013300079E004C0991F961708F0961B881F7A95CC
:10134000C9F780950895AA1BBB1B51E107C0AA1FCE
:10135000BB1FA617B70710F0A61BB70B881F991F56
:101360005A95A9F780959095BC01CD010895E19912
:10137000FECF9FBB8EBBE09A99278DB30895262F91
:10138000E199FECF9FBB8EBB2DBB0FB6F894E29ABE
:0C139000E19A0FBE01960895F894FFCF7B
:08139C0001320001013C780060
:00000001FF
